:020000040800F2
:10000000000001207D690008F5690008016A000808
:10001000156A00081D6A0008256A00080000000033
:10002000000000000000000000000000218B00081C
:100030002D6A000800000000718D0008D98D0008AD
:10004000CD690008CD690008CD690008CD690008B8
:10005000CD690008CD690008CD690008CD690008A8
:10006000CD690008CD690008CD690008CD69000898
:10007000CD690008CD690008CD690008CD69000888
:10008000CD690008CD69000829680008000000005B
:10009000000000000000000000000000CD69000822
:1000A000CD6900084D6800086D680008CD6900083A
:1000B0002D440008CD690008CD690008CD6900080D
:1000C000CD690008CD690008CD690008CD69000838
:1000D000CD690008CD690008CD6900080000000066
:1000E000CD690008CD690008CD6900080000000056
:1000F000000000000000000000000000CD690008C2
:1001000000000000CD690008CD690008CD69000835
:1001100000000000000000000000000000000000DF
:1001200075660008CD690008CD690008CD69000832
:10013000CD69000800000000000000000000000081
:100140000000000000000000000000003D6A000800
:10015000CD690008CD690008CD690008CD690008A7
:10016000CD690008CD690008000000000000000013
:10017000000000000000000000000000000000007F
:1001800000000000CD690008000000000000000031
:04019000CD6900082D
:1001A0000348044B834202D0034B03B11847704706
:1001B0009C0100209C010020000000000548064B27
:1001C0001B1AD90F01EBA301491002D0034B03B155
:1001D000184770479C0100209C010020000000008F
:1001E00010B5064C237843B9FFF7DAFF044B13B17F
:1001F0000448AFF300800123237010BD9C01002050
:1002000000000000EC10010808B5044B1BB10449C4
:100210000448AFF30080BDE80840CFE700000000CD
:10022000A0010020EC10010881F0004102E000BFB5
:1002300083F0004330B54FEA41044FEA430594EAA6
:10024000050F08BF90EA020F1FBF54EA000C55EAE1
:10025000020C7FEA645C7FEA655C00F0E2804FEAB2
:100260005454D4EB5555B8BF6D420CDD2C4480EA94
:10027000020281EA030382EA000083EA010180EAC4
:10028000020281EA0303362D88BF30BD11F0004F12
:100290004FEA01314FF4801C4CEA113102D0404248
:1002A00061EB410113F0004F4FEA03334CEA133383
:1002B00002D0524263EB430394EA050F00F0A7809B
:1002C000A4F10104D5F1200E0DDB02FA0EFC22FA96
:1002D00005F2801841F1000103FA0EF2801843FA8A
:1002E00005F359410EE0A5F120050EF1200E012A7B
:1002F00003FA0EFC28BF4CF0020C43FA05F3C018B9
:1003000051EBE37101F0004507D54FF0000EDCF131
:10031000000C7EEB00006EEB0101B1F5801F1BD3DA
:10032000B1F5001F0CD349085FEA30004FEA3C0CDE
:1003300004F101044FEA445212F5800F80F09A80D4
:10034000BCF1004F08BF5FEA500C50F1000041EBD8
:10035000045141EA050130BD5FEA4C0C404141EBDC
:100360000101013C28BFB1F5801FE9D291F0000FD7
:1003700004BF01460020B1FA81F308BF2033A3F186
:100380000B03B3F120020CDA0C3208DD02F1140C7D
:10039000C2F10C0201FA0CF021FA02F10CE002F1B8
:1003A0001402D8BFC2F1200C01FA02F120FA0CFCB1
:1003B000DCBF41EA0C019040E41AA2BF01EB0451FA
:1003C000294330BD6FEA04041F3C1CDA0C340EDCF8
:1003D00004F11404C4F1200220FA04F001FA02F33B
:1003E00040EA030021FA04F345EA030130BDC4F1F9
:1003F0000C04C4F1200220FA02F001FA04F340EAEE
:100400000300294630BD21FA04F0294630BD94F09E
:10041000000F83F4801306BF81F480110134013D85
:100420004EE77FEA645C18BF7FEA655C29D094EAF6
:10043000050F08BF90EA020F05D054EA000C04BF74
:100440001946104630BD91EA030F1EBF002100205F
:1004500030BD5FEA545C05D14000494128BF41F0FE
:10046000004130BD14F580043CBF01F5801130BD62
:1004700001F0004545F0FE4141F470014FF00000ED
:1004800030BD7FEA645C1ABF194610467FEA655C9E
:100490001CBF0B46024650EA013406BF52EA033540
:1004A00091EA030F41F4002130BD00BF90F0000F2E
:1004B00004BF0021704730B54FF4806404F132046A
:1004C0004FF000054FF0000150E700BF90F0000F23
:1004D00004BF0021704730B54FF4806404F132044A
:1004E00010F0004548BF40424FF000013EE700BF1A
:1004F00042004FEAE2014FEA31014FEA02701FBFAA
:1005000012F07F4393F07F4F81F06051704732F0DB
:100510007F4208BF704793F07F4F04BF41F4002132
:10052000704730B54FF4607401F0004521F0004190
:100530001CE700BF50EA010208BF704730B54FF01A
:1005400000050AE050EA010208BF704730B511F01B
:10055000004502D5404261EB41014FF4806404F153
:1005600032045FEA915C3FF4D8AE4FF003025FEAD9
:10057000DC0C18BF03325FEADC0C18BF033202EB5D
:10058000DC02C2F1200300FA03FC20FA02F001FAB7
:1005900003FE40EA0E0021FA02F11444BDE600BF5A
:1005A00070B54FF0FF0C4CF4E06C1CEA11541DBF09
:1005B0001CEA135594EA0C0F95EA0C0F00F0DEF8D4
:1005C0002C4481EA030621EA4C5123EA4C5350EAB9
:1005D000013518BF52EA033541F4801143F480130A
:1005E00038D0A0FB02CE4FF00005E1FB02E506F09B
:1005F0000042E0FB03E54FF00006E1FB03569CF0F0
:10060000000F18BF4EF0010EA4F1FF04B6F5007FF5
:1006100064F5407404D25FEA4E0E6D4146EB060667
:1006200042EAC62141EA55514FEAC52040EA5E50F0
:100630004FEACE2EB4F1FD0C88BFBCF5E06F1ED89A
:10064000BEF1004F08BF5FEA500E50F1000041EBD1
:10065000045170BD06F0004646EA010140EA02007E
:1006600081EA0301B4EB5C04C2BFD4EB0C0541EAA0
:10067000045170BD41F480114FF0000E013C00F3B5
:10068000AB8014F1360FDEBF002001F0004170BDD9
:10069000C4F10004203C35DA0C341BDC04F11404F2
:1006A000C4F1200500FA05F320FA04F001FA05F27E
:1006B00040EA020001F0004221F0004110EBD3704B
:1006C00021FA04F642EB06015EEA430E08BF20EA77
:1006D000D37070BDC4F10C04C4F1200500FA04F31A
:1006E00020FA05F001FA04F240EA020001F00041AC
:1006F00010EBD37041F100015EEA430E08BF20EA1F
:10070000D37070BDC4F1200500FA05F24EEA020E66
:1007100020FA04F301FA05F243EA020321FA04F095
:1007200001F0004121FA04F220EA020000EBD3704C
:100730005EEA430E08BF20EAD37070BD94F0000F4C
:100740000FD101F00046400041EB010111F4801F80
:1007500008BF013CF7D041EA060195F0000F18BF31
:10076000704703F00046520043EB030313F4801F6D
:1007700008BF013DF7D043EA0603704794EA0C0F27
:100780000CEA135518BF95EA0C0F0CD050EA41063D
:1007900018BF52EA4306D1D181EA030101F00041BA
:1007A0004FF0000070BD50EA410606BF10461946E2
:1007B00052EA430619D094EA0C0F02D150EA0136EE
:1007C00013D195EA0C0F05D152EA03361CBF10462F
:1007D00019460AD181EA030101F0004141F0FE41CE
:1007E00041F470014FF0000070BD41F0FE4141F452
:1007F000780170BD70B54FF0FF0C4CF4E06C1CEA52
:1008000011541DBF1CEA135594EA0C0F95EA0C0F06
:1008100000F0A7F8A4EB050481EA030E52EA0335C1
:100820004FEA013100F088804FEA03334FF08055E2
:1008300045EA131343EA12634FEA022245EA11150F
:1008400045EA10654FEA00260EF000419D4208BFC0
:10085000964244F1FD0404F5407402D25B084FEA6D
:100860003202B61A65EB03055B084FEA32024FF419
:1008700080104FF4002CB6EB020E75EB030E22BF76
:10088000B61A754640EA0C005B084FEA3202B6EB36
:10089000020E75EB030E22BFB61A754640EA5C00E5
:1008A0005B084FEA3202B6EB020E75EB030E22BF75
:1008B000B61A754640EA9C005B084FEA3202B6EB76
:1008C000020E75EB030E22BFB61A754640EADC0035
:1008D00055EA060E18D04FEA051545EA16754FEA97
:1008E00006164FEAC30343EA52734FEAC2025FEAB5
:1008F0001C1CC0D111F4801F0BD141EA00014FF044
:1009000000004FF0004CB6E711F4801F04BF014314
:100910000020B4F1FD0C88BFBCF5E06F3FF6AFAE30
:10092000B5EB030C04BFB6EB020C5FEA500C50F1C0
:10093000000041EB045170BD0EF0004E4EEA113143
:1009400014EB5C04C2BFD4EB0C0541EA045170BD4A
:1009500041F480114FF0000E013C90E645EA060E8E
:100960008DE60CEA135594EA0C0F08BF95EA0C0FBC
:100970003FF43BAF94EA0C0F0AD150EA01347FF404
:1009800034AF95EA0C0F7FF425AF104619462CE7DB
:1009900095EA0C0F06D152EA03353FF4FDAE10463E
:1009A000194622E750EA410618BF52EA43067FF48F
:1009B000C5AE50EA41047FF40DAF52EA43057FF41F
:1009C000EBAE12E74FEA410212F5001215D211D533
:1009D0006FF47873B3EB625212D94FEAC12343F03C
:1009E000004343EA505311F0004F23FA02F018BFBE
:1009F000404270474FF00000704750EA013005D187
:100A000011F0004008BF6FF0004070474FF0000049
:100A1000704700BF4A0011D212F5001211D20DD555
:100A20006FF47873B3EB62520ED44FEAC12343F0F4
:100A3000004343EA505323FA02F070474FF000009E
:100A4000704750EA013002D14FF0FF3070474FF04D
:100A5000000070474FEA4102B2F1E04324BFB3F512
:100A6000001CDCF1FE5C0DD901F0004C4FEAC00225
:100A70004CEA5070B2F1004F40EB830008BF20F009
:100A80000100704711F0804F21D113F13872BCBFC3
:100A900001F00040704741F480114FEA5252C2F118
:100AA0001802C2F1200C10FA0CF320FA02F018BF61
:100AB00040F001004FEAC1234FEAD32303FA0CFCB4
:100AC00040EA0C0023FA02F34FEA4303CCE77FEA43
:100AD000625307D150EA01331EBF4FF0FE4040F48D
:100AE0004000704701F0004040F0FE4040F400003C
:100AF000704700BF53B94AB9002908BF00281CBF7E
:100B00004FF0FF314FF0FF3000F06AB9ADF1080C43
:100B10006DE904CE00F006F8DDF804E0DDE902231B
:100B200004B070472DE9F047089D0E4604460F4675
:100B3000002B4AD194468C45B2FA82F260D942B178
:100B4000C2F12003974020FA03F30CFA02FC1F4382
:100B500094404FEA1C4E1FFA8CF6B7FBFEF1230CB3
:100B60000EFB117743EA074301FB06F098420AD9CE
:100B70001CEB030301F1FF3780F01581984240F22E
:100B80001281023963441B1AA4B2B3FBFEF00EFBC0
:100B9000103344EA034400FB06F6A6420AD91CEBD4
:100BA000040400F1FF3380F00081A64240F2FD8092
:100BB0006444023840EA0140A41B00211DB1D44026
:100BC0000023C5E90043BDE8F0878B4205D90DB18C
:100BD000C5E9000100210846F5E7B3FA83F10029D1
:100BE00046D1B34202D3824200F2F580841A66EB0A
:100BF000030201201746002DE5D0C5E90047E2E7D2
:100C0000002A40F09380A1EB0C034FEA1C471FFA27
:100C10008CFE0121B3FBF7F607FB1630230C43EAE9
:100C200000430EFB06F0984208D91CEB030306F1C3
:100C3000FF3802D2984200F2D08046461B1AA4B276
:100C4000B3FBF7F007FB103344EA03440EFB00FE4E
:100C5000A64508D91CEB040400F1FF3302D2A645D7
:100C600000F2B6801846A4EB0E0440EA0640A5E761
:100C7000C1F120078B4022FA07FC4CEA030C06FA6C
:100C800001FE20FA07F426FA07F344EA0E0400FAFC
:100C900001F84FEA1C404FEA1449B3FBF0FE1FFA7B
:100CA0008CF600FB1E3349EA03430EFB06F9994517
:100CB00002FA01F20BD91CEB03030EF1FF3A80F0AC
:100CC0008580994540F28280AEF1020E6344A3EB29
:100CD0000909A4B2B9FBF0F300FB139944EA0944F3
:100CE00003FB06F6A64208D91CEB040403F1FF300F
:100CF00068D2A64266D9023B644443EA0E40A41B74
:100D0000A0FB02E6B4427346B14652D34FD05DB168
:100D1000B8EB030264EB090404FA07F722FA01F3C3
:100D20001F43CC40C5E9007400214CE7C2F120010B
:100D300020FA01F30CFA02FC26FA01F19640334343
:100D40004FEA1C471FFA8CFEB1FBF7F007FB1016A9
:100D5000190C41EA064100FB0EF68E4204FA02F439
:100D600008D91CEB010100F1FF382DD28E422BD99E
:100D700002386144891B9BB2B1FBF7F607FB1611E1
:100D800043EA014306FB0EF1994208D91CEB030329
:100D900006F1FF3814D2994212D9023E63445B1A1D
:100DA00046EA004136E73946EDE6184602E7F045E7
:100DB000ADD2BEEB020366EB0C060138B146A6E7E6
:100DC0004646ECE7034698E74046D3E7D6467EE73B
:100DD0006444023847E708460DE7023E63442DE7C6
:100DE000704700BF10B51C4C002924689AB02DDB59
:100DF000009004904FF40270ADF80C004FF000002A
:100E0000199013D001394FF6FF7002910591ADF89A
:100E10000E006946204600F03FF9421C01DA8B23A0
:100E20002360009B00221A701AB010BD4FF6FF70AD
:100E300002910591ADF80E006946204600F02CF9AC
:100E4000431C01DA8B2323601AB010BD8B2323606F
:100E50004FF0FF30F8E700BF0000002030B5144627
:100E6000002C9BB005462EDB1A464FF40273ADF8FA
:100E70000C304FF0000300910491199313D04FF6FA
:100E8000FF73013CADF80E3069461E9B0294059439
:100E900000F002F9421C01DA8B232B60009B002238
:100EA0001A701BB030BD4FF6FF73ADF80E306946B7
:100EB0001E9B0294059400F0EFF8431C01DA8B238B
:100EC0002B601BB030BD8B2303604FF0FF30F8E781
:100ED0002DE9F0478F681D46AF420B680C46164659
:100EE00036D8B1F90CC01CF4906F0ED13D461846AF
:100EF00031462A4600F06EFBA368DF1B2368A7601B
:100F00002B4400202360BDE8F0874A69096902EBA1
:100F100042025F1A02EBD2726B1C52103B449342A6
:100F200092BF914699461A461CF4806F804611D0B4
:100F3000114600F071FA824600B321693A4600F08A
:100F40001FFCA38923F4906343F08003A38105E091
:100F50002F46CCE700F0AEFC824658B10AEB0703FF
:100F6000A9EB0707A760C4F810A0C4F81490236089
:100F70002F46BCE72169404600F0CEFAA3890C2237
:100F800043F04003C8F800204FF0FF30A381BAE7D8
:100F90002DE9F04F9368176883B09246002B74D008
:100FA0004FF0000B8B680A6881460C465D4645E0B1
:100FB000B4F90C3013F4906F2CD0D4E90401161A54
:100FC00001EB410202EBD272711C52102944914292
:100FD00092BF904688460A465B0539D51146484679
:100FE00000F01AFA019000283DD03246216900F045
:100FF000C7FBA289019B22F4906242F08002A28189
:101000009819A8EB0606A660C4F814802361206036
:10101000A8462E463246594600F0DCFADAF80810A7
:10102000A3682268A3EB08033244491BA360226033
:10103000CAF8081049B3D7E900B5083798461046F2
:10104000002DF8D09D421E46B2D2A8462E46E1E7BA
:101050000146484600F02EFC03460028D0D1216905
:10106000484600F059FAA3890C2243F04003C9F81E
:1010700000204FF0FF30A38100220023CAF808208F
:10108000CAF8043003B0BDE8F08F00200023CAF88E
:10109000043003B0BDE8F08F2DE9F04F1C468B897A
:1010A0001D069DB088468146934603D50B69002BEB
:1010B00000F0F1800023099343F22003ADF82930BA
:1010C0009BF800307D4D03940126002B73D0DA4647
:1010D00003E01AF8013F002B75D0252BF9D1BAEBAC
:1010E0000B0473D19AF80020002A64D000234FF03B
:1010F000FF32CDE905230AF1010A049307938DF825
:1011000053301A9305E0049A06FA03F31A43049243
:10111000A2465446052214F8011B284600F0E0FAC6
:10112000A346431B0028EED1049BD80644BF2022CF
:101130008DF8532019079AF8001044BF2B228DF820
:1011400053202A2950D1039A1168043200290392AE
:101150007CDB07919AF801102E295BD0584C0322B2
:10116000204600F0BDFA38B1049B001B40228240AB
:1011700013430BF1010B04931BF8011B51488DF82D
:101180002810062200F0ACFA002865D04E4B002B48
:1011900055D003AA00924D4B424604A94846AFF3EE
:1011A000008007467A1C06D0099B3B4409939BF8B4
:1011B0000030002B8BD1B8F80C305B067AD409983C
:1011C0001DB0BDE8F08FBAEB0B04F4D023465A46AD
:1011D00041464846FFF77CFE0130ECD0099B9AF867
:1011E0000020234409937FE7A1F13002092A88BF38
:1011F000D346B1D8079B00E00134217803EB830389
:1012000002EB4303A1F13002092AF5D92E290793F5
:10121000A346A3D19BF801102A2927D1039B9BF851
:1012200002101A6805920433002A0BF1020003939E
:10123000B8BF4FF0FF338346B8BF05938EE7039BDB
:10124000073323F0070308330393ADE7494243F024
:101250000203079104937DE703AA00921B4B4246C9
:1012600004A9484600F0EAFB07469BE7A1F13002DB
:101270000023092A05930BF1010B3FF66FAF1BF812
:10128000011F03EB830302EB4303A1F13002092AA0
:10129000F5D9059362E7402100F0BEF8C8F80000D8
:1012A000C8F8100018B14023C8F8143002E70C2326
:1012B000C9F800304FF0FF3082E700BF4417010843
:1012C0004C1701085017010800000000D10E00085B
:1012D00070B50F4B0F4DAB42A3EB050607D0B61010
:1012E000002455F8043B01349847A642F9D80FF082
:1012F000FDFE094D094B5E1BAB424FEAA60606D028
:10130000002455F8043B01349847A642F9D870BD33
:101310008817010888170108881701089017010825
:10132000830730B547D0541E002A3ED0CAB20346C8
:1013300001E0013C39D303F8012B9D07F9D1032CBF
:101340002CD9CDB205EB05250F2C05EB054535D97C
:10135000A4F1100222F00F0C03F1100EE6444FEA44
:10136000121C1A46C2E90055C2E9025510327245F4
:10137000F8D10CF1010214F00C0F03EB021204F08F
:101380000F0C13D0ACF1040323F003030433134414
:1013900042F8045B9342FBD10CF003042CB1C9B2B8
:1013A0001C4403F8011BA342FBD130BD6446134625
:1013B000002CF4D1F9E703461446C0E71A46A446C8
:1013C000E0E700BF014B1868704700BF0000002035
:1013D00070B5104E336805460C46B3B12146284619
:1013E00000F0B0FE431C0CD0C41C24F00304A04247
:1013F00005D0211A284600F0A5FE013001D0204674
:1014000070BD4FF0FF34204670BD194600F09AFEC3
:101410003060E3E7B80100202DE9F843CD1C25F04A
:10142000030508350C2D38BF0C25002D064618DBAA
:10143000A94216D8DFF8DC8000F042FCD8F804207E
:10144000A2B1144603E0636822467BB11C462368C0
:101450005B1BF8D40B2B1FD89442636854D05360A5
:101460000CE00C2333600020BDE8F88329463046A9
:10147000FFF7AEFF431C044619D00560304600F06C
:1014800021FC04F10B00231D20F00700C21A1CBF31
:101490001B1AA350BDE8F88361199442256014BF5C
:1014A0005160C8F80410635163684B60E6E7D8F8F0
:1014B00004701FB33C467F68002FFBD12368394678
:1014C000304604EB030900F03DFE814516D1236848
:1014D000ED1A29463046FFF77BFF01300ED0236816
:1014E000D8F804202B442360536883B1A34203D06F
:1014F0001A465B689C42FBD10023B0E70C233360A3
:10150000304600F0DFFBAEE7C8F80430B6E7C8F8B5
:101510000470B3E7B8010020002950D038B551F865
:10152000043C0C1F002BB8BFE418054600F0C8FBB4
:10153000274A13682BB1A3420CD921686018834253
:101540002CD0636028461460BDE8384000F0BABB78
:10155000A3420FD81A465B68002BF9D111685018C6
:10156000844217D02CD3636054602846BDE83840CD
:1015700000F0A8BB11685018A04214D020D82168F0
:1015800060188342EFD118685B680844C4E900031F
:101590005460EAE723680B441360E6E718685B6869
:1015A00008442060CDE72068014450188342116050
:1015B000DBD1D3E900040144C2E90014D5E7704748
:1015C0000C232B602846BDE8384000F07BBB00BFF1
:1015D000BC01002088420ED98B1883420BD900EB46
:1015E000020C002A6ED0624613F801CD02F801CD3C
:1015F0009942F9D170470F2A0FD8034602F1FF3CF8
:10160000002A5FD00CF1010C013B8C4411F8012B36
:1016100003F8012F6145F9D1704740EA01039B07A8
:1016200051D1A2F1100370B501F1200C23F00F0588
:1016300001F1100E00F11004AC441B095EF8105CBF
:1016400044F8105C5EF80C5C44F80C5C5EF8085CD6
:1016500044F8085C5EF8045C44F8045C0EF1100E7B
:10166000E64504F11004E9D1013312F00C0F01EB4F
:10167000031102F00F0400EB031328D0043C24F004
:1016800003064FEA940C1E441C1F8E465EF8045B52
:1016900044F8045FB442F9D10CF1010402F00302F2
:1016A00003EB840301EB840102F1FF3C4AB10CF12E
:1016B000010C013B8C4411F8012B03F8012F61450B
:1016C000F9D170BD704702F1FF3C03469AE722460C
:1016D000EAE700BF0000000000000000000000007A
:1016E00001F0FF01102A2BDB10F0070F08D010F8D3
:1016F000013B013A8B422DD010F0070F42B3F6D1D7
:10170000F0B441EA012141EA014122F007047FF0EF
:1017100000070023F0E80256083C85EA010586EA46
:10172000010685FA47F5A3FA87F586FA47F6A5FA82
:1017300087F68EB9EED1F0BC01F0FF0102F007028E
:1017400032B110F8013B013A83EA010313B1F8D139
:101750000020704701387047002D06BF354603381A
:10176000073815F0010F07D1013015F4807F02BF53
:10177000013015F4C03F0130F0BC0138704700BFA4
:10178000844641EA000313F003036DD1403A41D38C
:1017900051F8043B40F8043B51F8043B40F8043B4B
:1017A00051F8043B40F8043B51F8043B40F8043B3B
:1017B00051F8043B40F8043B51F8043B40F8043B2B
:1017C00051F8043B40F8043B51F8043B40F8043B1B
:1017D00051F8043B40F8043B51F8043B40F8043B0B
:1017E00051F8043B40F8043B51F8043B40F8043BFB
:1017F00051F8043B40F8043B51F8043B40F8043BEB
:1018000051F8043B40F8043B51F8043B40F8043BDA
:10181000403ABDD2303211D351F8043B40F8043B7A
:1018200051F8043B40F8043B51F8043B40F8043BBA
:1018300051F8043B40F8043B103AEDD20C3205D38A
:1018400051F8043B40F8043B043AF9D2043208D082
:10185000D2071CBF11F8013B00F8013B01D30B88F4
:1018600003806046704700BF082A13D38B078DD0D2
:1018700010F003038AD0C3F10403D21ADB071CBFA4
:1018800011F8013B00F8013B80D331F8023B20F80E
:10189000023B7BE7043AD9D3013A11F8013B00F847
:1018A000013BF9D20B7803704B7843708B788370CF
:1018B000604670472DE9F041144641B30AB306462D
:1018C0000D4600F051FC8442074602D8B4EB500F9D
:1018D00013D821463046FFF79FFD804650B1BC42E9
:1018E0002246294628BF3A46FFF74AFF2946304696
:1018F000FFF712FE4046BDE8F081A8464046BDE82D
:10190000F081A046FFF708FE4046BDE8F081BDE843
:10191000F0411146FFF780BD2DE9F84F92461F4672
:101920000A698B68DDF828909A42B8BF1A46CAF84F
:10193000002091F843300C46064613B10132CAF834
:101940000020226891065FD5DAF800300233CAF829
:101950000030226812F0060F11461DD1E16899424D
:10196000D8BF114618DD4FF0000804F1190B05E04F
:10197000E568DAF80030ED1A45450CDD01235A46DA
:1019800039463046C847013008F10108F0D14FF020
:10199000FF30BDE8F88F216894F84330003B18BF52
:1019A00001238A060AD5E1185A1C302081F8430029
:1019B000224494F8451082F84310023304F14302A4
:1019C00039463046C8470130E1D02368DAF8005084
:1019D000216903F00603042BD4E902201BD08A42BC
:1019E00020DD4FF00008521A90441A34002501E01F
:1019F000454517DA0123224639463046C8470130AB
:101A000005F10105F4D1C2E712F0060F0DD0003B3D
:101A100018BF0123D2E7401B8A4220EAE078E2DCCB
:101A20000028E2DC0020BDE8F88FE168DAF8003039
:101A30009942D8BF114696DCAEE700BF2DE9F047CA
:101A4000174684B00A7E0C9D0C460646984601F166
:101A5000430C002A35D0A2F15803D9B2202969D805
:101A6000202B67D8DFE813F0E6006600660066000A
:101A70006600660066006600660066006600AC00F0
:101A80007000660066006600660070006600660012
:101A90006600660021008300C60066006600B6008E
:101AA0006600830066006600EC002B6822686169AE
:101AB000181D286010061B6802D4520600F1E08051
:101AC00019600023E1462361CDF800803B4603AA5C
:101AD00021463046FFF720FF013020D023694A46D7
:101AE00039463046C047013019D02368E068DDF838
:101AF0000C909B0718D5484516DD002504F1190AFE
:101B000004E0E068A0EB0903AB420DDD012352467F
:101B100039463046C047013005F10105F1D14FF09B
:101B2000FF3004B0BDE8F0874845B8BF484604B070
:101B3000BDE8F08784F84220012004F14209002327
:101B4000206184F84330BFE72A682368111D180616
:101B5000296002D4590600F19580106801460028DA
:101B60006268C0F2938054484FF00A0E15E0206876
:101B70002B6810F0800F53F8041B02D1400648BFB9
:101B800089B26F2A4C482B6014BF4FF00A0E4FF0F9
:101B9000080E0023626884F84330002AA26051DBFB
:101BA000236823F00403236000294BD1002A7BD152
:101BB000E146BEF1080F56D0ACEB0903236183E781
:101BC0002B681A6804332B6004F1420984F8422020
:101BD0000120B4E72B686268191D2960D3F80090D2
:101BE00000214846FFF77CFD002863D0A0EB0900E8
:101BF0006060A4E7236843F02003236078222F4825
:101C000084F845202A6813F0800F52F8041B03D192
:101C100013F0400F18BF89B22A60DA0744BF43F0BF
:101C20002003236019B9236823F0200323604FF0B9
:101C3000100EAEE7582384F845301F482368E1E7CB
:101C40002368DBE77546E146B1FBF5F305FB131AA4
:101C50000A46AA4210F80A1009F8011D1946F3D2E3
:101C6000BEF1080FA8D12368DD07A5D562682369F6
:101C70009A42A1DC302309F8013C09F1FF399BE7C6
:101C800019801EE7B2F90010084668E72D20002AE7
:101C9000A26084F8430002DB23F0040323600A25DA
:101CA00005484942AE46CEE7037884F8423004F155
:101CB00042097EE7606842E7581701086C1701087F
:101CC000704700BF704700BF032BD2B22CD930B58C
:101CD00040EA0104A4078E4619D102EB022502EB6B
:101CE000052502EB052504E0043B032B40F8044BDB
:101CF00028D9DEF80040714684EA050EAEF1013CB9
:101D00002CEA0E0C1CF0803F01F1040EECD00139DE
:101D1000034405E011F801CF00F801CB944502D04F
:101D20009842F7D1002030BD0139034405E011F895
:101D300001CF00F801CB944503D09842F7D10020A1
:101D4000704770477146E2E70EB400B582B003AB4E
:101D5000816853F8042B019300F060F802B05DF83D
:101D600004EB03B0704700BF0FB400B5074983B060
:101D700004AB086853F8042B8168019300F04EF817
:101D800003B05DF804EB04B0704700BF0000002012
:101D90009368013B002B936011DA10B49469A3425D
:101DA00009DB0A2907D01368581C1060197008460F
:101DB0005DF8044B70475DF8044B00F073B913688D
:101DC000581C106019700846704700BF9BB1F8B5E9
:101DD000134406460F46541E5D1E01E0AC4208D077
:101DE00014F8011F3A463046FFF7D2FF431CF5D1E5
:101DF000F8BD0020F8BD0020704700BF936810B503
:101E000014461BB918460023636010BD00F0B4F9F6
:101E10000023A3600023636010BD00BF2DE9F04FD5
:101E2000A1B08B4691461C46049018B1036A002B62
:101E300000F01C81BBF80C30180740F19580DBF8EE
:101E40001030002B00F090800023CA460D9343F21F
:101E50002003ADF839309AF80030864E07940127F8
:101E6000002B79D0D14604E019F8013F002B00F097
:101E70008580252BF8D1B9EB0A0840F0828099F8CB
:101E80000030002B68D000234FF0FF32CDE909234A
:101E900009F1010908930B938DF863301E9305E057
:101EA000089A07FA03F31A430892A1464C46052202
:101EB00014F8011B3046FFF713FCA246831B0028D1
:101EC000EED1089BD90644BF20228DF8632099F8F3
:101ED00000101A0744BF2B228DF863202A2966D1EF
:101EE000079A1168043200290792C0F29A800B9178
:101EF00099F801102E2970D05F4C03222046FFF77D
:101F0000EFFB38B1089B001B4022824013430AF1CB
:101F1000010A08931AF8011B58488DF83810062258
:101F2000FFF7DEFB002800F08280554B002B69D0C4
:101F300007AA0092534B04985A4608A9AFF30080B1
:101F40000390039B013307D00D9B039A13440D9319
:101F50009AF80030002B85D1BBF80C305B060AD410
:101F60000D9821B0BDE8F08F0498594600F08CFC24
:101F700000283FF469AF4FF0FF30F2E7B9EB0A08F1
:101F8000EAD00AF1FF35CDF81490A946049D01E08E
:101F9000A0453ED94C465A4619F8011F2846FFF77E
:101FA000F7FE02340130A4EB0A04F1D1D4E7A1F129
:101FB0003002092A88BFCA469CD80B9B00E0013436
:101FC000217803EB830302EB4303A1F13002092ADA
:101FD000F5D92E290B93A2468ED19AF801102A2901
:101FE0002FD1079B9AF802101A6809920433002A2D
:101FF0000AF102000793B8BF4FF0FF338246B8BF23
:10200000099379E7079B073323F007030833079306
:102010009AE70D99DDF81490414499F800300D913C
:102020002FE7494243F002030B91089360E707AAA8
:102030000092144B04985A4608A9FFF7FFFC03903E
:102040007FE7A1F130020023092A09930AF1010A6E
:102050003FF652AF1AF8011F03EB830302EB430371
:10206000A1F13002092AF5D9099345E700F0EEFA0B
:10207000E0E600BF441701084C170108501701089B
:1020800000000000CD1D000810B4054C8446134626
:1020900020685DF8044B0A466146FFF7BFBE00BFEB
:1020A00000000020F8B50D461446064610B1036A3C
:1020B000002B37D0A389A269A2601A0719D523691A
:1020C000BBB122686169D31AEDB299422F4620DD77
:1020D0000133A1680139A160511C2160157062694A
:1020E0009A420DD0A389DB0701D50A2D08D03846C6
:1020F000F8BD2146304600F0C7FB38B92369E0E758
:102100002146304600F05CFB0028F0D04FF0FF374E
:10211000EDE72146304600F053FB0028F6D1226857
:102120000123D6E700F092FAC4E700BF10B4044CD4
:1021300003460A4620685DF8044B1946FFF7B2BF14
:102140000000002038B5074D0022044608462A60EA
:1021500004F0ECFE431C00D038BD2B68002BFBD0F4
:10216000236038BDFC02002051F8043C181F002BEE
:10217000BCBF0B58C01870479368002B00F0F88064
:102180002DE9F04FB1F90CC01CF0080F83B0904658
:1021900081460C4631D00B697BB31CF00207D8F89E
:1021A000006038D00027D4F828B0216ADFF8C4A234
:1021B0003D4655452B463A4628BF53464846C5B18D
:1021C000D847002840F3CA80D8F808301B1A0744C3
:1021D0002D1AC8F80830002B00F0B68055452B4664
:1021E000D4F828B0216A28BF53463A464846002D05
:1021F000E6D1D6E900750836DBE72146484600F00F
:1022000043FB002840F0AF80B4F90CC0D8F8006060
:102210001CF00207C6D11CF0010A63D12368A16833
:10222000574618468B46002F58D01CF4007F00F00C
:10223000B580B9420A4600F2E1801CF4906F2FD0BD
:10224000216962695D1A02EB420202EBD2726B1CD9
:1022500052103B44934292BF93469B461A461CF44D
:10226000806F00F0EA8011464846FFF7D5F8002855
:1022700000F0F9802A4621690090FFF781FAA289CF
:10228000009B22F4906242F08002A2815819ABEBCD
:102290000505C4F814B02361A5602060BB463A462A
:1022A00051460092FFF796F9A1682368009AA1EBC6
:1022B0000B011A443D46A16022600027D8F808307F
:1022C0005B1BAA44C8F80830002B3DD02368A168E6
:1022D000B4F90CC018468B46002FA6D1D6E900A74A
:1022E00008369EE73846BB463D460097002D41D054
:1022F000002846D0009A2068A168D4E90473AA4255
:1023000028BF2A46B84204D901EB030A524500F31C
:102310008580934275DC216AA76A5A464846B847C9
:10232000B0F1000A1ADD009BB3EB0A0300930FD053
:102330000120D8F80830A3EB0A03D344A5EB0A0523
:10234000C8F80830002BD1D1002003B0BDE8F08FD1
:102350002146484600F034FA0028EAD0B4F90C309F
:1023600043F04003A3814FF0FF3003B0BDE8F08F8E
:1023700000207047756833460836002DFAD0D3F830
:1023800000B02A460A215846FFF7AAF9002867D06C
:102390000130A0EB0B0300931A46ACE722699A4286
:1023A00014D36269BA4211D86FF00043BB4228BF10
:1023B0003B46A56A93FBF2F3216A02FB03F348460E
:1023C0005246A847051EC9DD7F1B77E7B94228BFE3
:1023D00039460D4618460A465146FFF7FBF8A168F4
:1023E0002368491B2B44A16023600029ECD12146BE
:1023F000484600F0E5F90028E6D0AFE7BB463A468C
:102400004EE759460192FFF7E5F8019AA3689B1A37
:10241000A360236813442360924684E759465246DA
:10242000FFF7D8F82368534423602146484600F05C
:10243000C7F900283FF477AF90E74846FFF73AFA2C
:10244000034600287FF422AF21694846FFF764F86D
:10245000B4F90C300C22C9F8002023F080037FE788
:102460006A1C009247E70C22B4F90C30C9F800202E
:1024700076E700BF00FCFF7F00207047024A034957
:10248000034800F0DFB900BF50000020C12700085A
:10249000040000200C4B4168994210B5044601D05D
:1024A00000F08EF9A168094B994202D0204600F055
:1024B00087F9E168064B994204D02046BDE81040F8
:1024C00000F07EB910BD00BFC0010020280200202E
:1024D00090020020002070472DE9F8432A4C2B4938
:1024E000DFF8BC90DFF8BC80294FC4F83811002514
:1024F00004230822294604F15C00264EE360C4E967
:102500000055C4E90455A5606566A561FEF708FF9E
:10251000214B63670822294604F1C400C4E9084935
:10252000C4E90A87C4E91A55C4E91E552567C4F8E9
:10253000CC50C4F880502663FEF7F2FE174BC4F867
:10254000DC30294604F16803082204F59670C4F8CB
:102550008830C4E92398C4E92576C4E93455C4E930
:102560003855C4F8D850C4F83451C4F8E850FEF7D0
:10257000D7FE04F1D003C4E93D98C4E93F76C4F81E
:10258000F030BDE8F88300BFC00100207D240008C2
:10259000ED2A0008112B00080900010012000200BA
:1025A000852A0008AD2A0008F8B5254BD3F8383144
:1025B0000646002B3CD0234FD7E90134013B04D51C
:1025C0001DE05A1C04F1680419D0B4F90C50013B09
:1025D000002DF6D11C4BE360C4E90155C4E9045554
:1025E00065662560A5610822294604F15C00FEF7B6
:1025F00097FEC4E90D55C4E912552046F8BD3D6863
:102600000DB12F46D8E74FF4D6713046FEF704FFE0
:10261000044680B10423C0E900530C302946A06071
:102620004FF4D0722546FEF77BFE3C602F46C3E791
:10263000FFF752FFBFE70C2338603360DDE700BFD0
:10264000C0010020500000200100FFFF036A03B119
:102650007047044B044AD3F838310262002BF7D19B
:102660003AE700BFC001002095240008704700BF72
:10267000704700BF024A0349002000F0E3B800BFE2
:102680005000002079240008024A0349002000F08D
:10269000D9B800BF50000020D5240008B1F90C3093
:1026A0002DE9F0411E070C4680463DD44A68002AB9
:1026B00056DDE56A002D34D00022D8F80060C8F855
:1026C000002013F48052216A57D101234046A847C5
:1026D000451C024666D0B4F90C30E56A216A5807F9
:1026E00005D56368D21A636B0BB1236CD21A002331
:1026F0004046A847431C42D00023636023692360FF
:10270000A389DF0400D56065616BC8F8006041B142
:1027100004F14403994202D04046FEF7FDFE002337
:1027200063630020BDE8F0810E69002EF9D09B079D
:102730000D6808BF4B690E6018BF0023AD1B8B608E
:102740000BE02B463246216AA76A4046B847B0F1F3
:10275000000CA5EB0C05664406DD002DF1DCE0E77E
:102760000A6C002AA5DCDCE7B4F90C3043F0400326
:10277000A3814FF0FF30BDE8F081626DAFE7D8F87C
:102780000010B4F90C301D29F0D80C4ACA40D50706
:10279000ECD52269226000226260DA04B4D50029F7
:1027A000B1D0B1E7D8F80030002B94D01D2B01D068
:1027B000162BD9D1C8F80060B3E700BF0100402054
:1027C0000B69B3B110B5044682B008B1036A5BB1BE
:1027D000B1F90C3013B9002002B010BD204602B090
:1027E000BDE81040FFF75ABF0191FFF72FFF019995
:1027F000EEE70020704700BFB8B138B50D4A036955
:10280000156804462BB10DB12B6A53B1B4F90C30E5
:102810000BB9002038BD21462846BDE83840FFF7F7
:102820003DBF2846FFF712FFF0E7034A034904487B
:1028300000F008B80000002050000020C127000868
:10284000040000202DE9F8430746884616464FF05D
:102850000009D6E90154013D10D4A389012B08D900
:10286000B4F90E3001332146384602D0C04749EA58
:102870000009013D6B1C04F16804EED13668002E9E
:10288000E7D14846BDE8F88338B52F4B1B680546AD
:102890000C4613B11A6A002A4BD0B4F90C30180751
:1028A0001CD5226922B313F0010107D06169002011
:1028B0004942A060A1613AB1002038BD980758BFD5
:1028C0006169A160002AF7D1190658BF1046F4D5F6
:1028D00043F04003A3814FF0FF3038BDD9062CD51B
:1028E0005A0712D4226943F00803A381002ADAD1DF
:1028F00003F42071B1F5007FD5D02146284600F0C1
:1029000025F8B4F90C302269CDE7616B51B104F1BF
:102910004402914204D02846FEF7FEFDB4F90C3083
:102920000022626322690021C4E9002123F024030C
:10293000D9E71846FFF78AFEAFE7092243F04003C4
:102940002A60A381C7E700BF0000002070B5B1F97D
:102950000C300C46990796B007D504F147030122C5
:10296000C4E90432236016B070BDB4F90E1000291A
:10297000054629DB6A4600F0F7F8002822DB4FF411
:1029800080612846019EFEF747FD88B3A389206039
:1029900043F0800306F47046A381B6F5005F4FF460
:1029A0008063C4E90403DED1B4F90E10284600F0B8
:1029B00057F80028D7D0A38923F0030343F001037D
:1029C000A381D0E7B4F90C3013F0800F14BF402678
:1029D0004FF4806631462846FEF71EFD40B1A389BC
:1029E000206043F08003C4E90406A38116B070BDE3
:1029F000B4F90C309A05B6D423F0030304F147026E
:102A000043F002030121C4E90421A3812260AAE763
:102A100070B50C46B1F90E10002996B015461E4649
:102A20000FDB6A4600F0A0F800280ADB019B03F4E4
:102A30007043A3F50053B3FA83F34FF480625B094C
:102A400008E0A28912F0800F4FF0000314BF40226B
:102A50004FF48062002033602A6016B070BD00BF62
:102A600038B5074D0022044608462A6004F0E9FA0A
:102A7000431C00D038BD2B68002BFBD0236038BD31
:102A8000FC02002010B50C46B1F90E1000F056F80B
:102A9000002803DB636D0344636510BDA38923F441
:102AA0008053A38110BD00BF002070472DE9F04185
:102AB0000C46B1F90C101F46CB05054616460BD443
:102AC00021F48051A1813B46B4F90E1032462846CC
:102AD000BDE8F04100F074B8B4F90E1002230022F2
:102AE00000F058F8B4F90C10EAE700BF10B50C4636
:102AF000B1F90E1000F04EF8B4F90C30421C0EBFC4
:102B000023F4805343F480536065A38110BD00BF5C
:102B1000B1F90E1000F000B838B5074D0022044698
:102B200008462A6004F071FA431C00D038BD2B68B7
:102B3000002BFBD0236038BDFC02002038B50C46CA
:102B4000084D8446114620461A4600232B606446F1
:102B500004F022FA431C00D038BD2B68002BFBD0B8
:102B6000236038BDFC02002070B50C46084D0346BA
:102B70000026204611461C462E6004F052FA431CE3
:102B800000D070BD2B68002BFBD0236070BD00BF50
:102B9000FC02002038B50C46084D844611462046FC
:102BA0001A4600232B60644604F056FA431C00D0FA
:102BB00038BD2B68002BFBD0236038BDFC02002001
:102BC00038B50C46084D8446114620461A46002367
:102BD0002B60644604F0FDF9431C00D038BD2B681F
:102BE000002BFBD0236038BDFC020020F1EE103A30
:102BF00043F08073E1EE103A704700BF80B485B0B7
:102C000000AFF860B9607A60FA687B689A4202DACD
:102C1000FB68013300E0BB6818461437BD465DF819
:102C2000047B704780B485B000AFF860B9607A600B
:102C3000FA68BB689A4202DDFB68013B00E07B68F2
:102C400018461437BD465DF8047B704780B485B0E4
:102C500000AFF860B96011461A460B46FB80134678
:102C6000BB80FB68BA681A60FB68FA885A81FB6807
:102C7000BA889A80FB680022DA80FB6800221A81F9
:102C8000FB6800229A81FB680022DA81FB6800223F
:102C90001A61FB6800225A6100BF1437BD465DF817
:102CA000047B704780B485B000AF78607B68DB88B8
:102CB000FB817B681B89BB81FA89BB899A4204D35B
:102CC000FA89BB89D31A9BB207E07B689A88BB89D3
:102CD000D31A9AB2FB8913449BB218461437BD46E7
:102CE0005DF8047B704790B583B000AF78607B6877
:102CF0009C887868FFF7D6FF0346E31A9BB2013B36
:102D00009BB218460C37BD4690BD80B584B000AF6D
:102D100078600B467B807868FFF7C4FF0346FB8131
:102D20007B681B697A887968498901FB02F21A4439
:102D30007B681A617B689B89FA899A4202D97B6811
:102D4000FA899A817B68DB88BB81BA897B881344C6
:102D50009AB2B9897B880B44796889888B4202DBF7
:102D60007B689B8800E00023D31ABB817B68BA890B
:102D7000DA8000BF1037BD4680BD80B485B000AF9B
:102D800078600B467B807B681B89FB817B685B6975
:102D90007A887968498901FB02F21A447B685A6192
:102DA000FA897B8813449AB2F9897B880B44796845
:102DB00089888B4202DB7B689B8800E00023D31A62
:102DC000FB817B68FA891A8100BF1437BD465DF824
:102DD000047B704780B586B000AFF8607A603B60D6
:102DE0000B467B81F868FFF77EFF03461A467B8916
:102DF000934207D9FB68DB8901339AB2FB68DA8119
:102E000000234CE0FB68DB889AB2FB681B899BB20D
:102E10009A4211D3FB689A88FB68DB889BB2D31A6D
:102E20009BB2FA68128992B2002A0CBF01220022DA
:102E3000D2B29B1AFB8209E0FB681B899AB2FB683D
:102E4000DB889BB2D31A9BB2013BFB82FB681B68F9
:102E5000FA68D28892B21146FA68528901FB02F2EE
:102E60001A447B681A60FA8A7B899A4209D33B6AC2
:102E700000221A603B687A891A807B6A00221A80D5
:102E80000CE0FB681A683B6A1A603B68FA8A1A8091
:102E90007A89FB8AD31A9AB27B6A1A800123184670
:102EA0001837BD4680BD80B586B000AFF860B96008
:102EB0007A603B60F868FFF7F5FE0346002B0DD102
:102EC000BB6800221A607B6800221A803B680022DF
:102ED0001A603B6A00221A80002345E0F868FFF779
:102EE000E1FE0346BB82FB681B899AB2FB68DB8864
:102EF0009BB29A4207D3FB689A88FB681B899BB2F6
:102F0000D31AFB8207E0FB68DB889AB2FB681B8957
:102F10009BB2D31AFB82FB681B68FA68128992B2D3
:102F20001146FA68528901FB02F21A44BB681A6022
:102F3000FA8ABB8A9A4209D33B6800221A607B68EE
:102F4000BA8A1A803B6A00221A800CE0FB681A6871
:102F50003B681A607B68FA8A1A80BA8AFB8AD31A9D
:102F60009AB23B6A1A80012318461837BD4680BDC5
:102F700080B483B000AF786039607B681B683A68C2
:102F8000D31A18460C37BD465DF8047B704780B5F0
:102F900084B000AFF860B9607A60B968F868FFF78C
:102FA000E7FF02467B68934294BF01230023DBB214
:102FB00018461037BD4680BD80B483B000AF78603E
:102FC00039607B683A681A6000BF0C37BD465DF80F
:102FD000047B704780B582B000AF78600B467B8081
:102FE00001F00EF900BF0837BD4680BD80B584B042
:102FF00000AFF860B9607A60FB7000F012FD00BFAE
:103000001037BD4680BD80B582B000AF786001F05A
:10301000DFF9F0EE407AB0EE670A0837BD4680BDB2
:1030200080B582B000AF78603960386801F0A8F9E7
:1030300000BF0837BD4680BD80B582B000AF786064
:103040003960386801F0B4F900BF0837BD4680BD6B
:1030500080B400AF034B5B681846BD465DF8047B47
:10306000704700BF001000E080B483B000AF78600C
:10307000044B5A687B68D31A18460C37BD465DF876
:10308000047B7047001000E084B0B0B582B000AFA0
:10309000786007F11C0080E80E007B6800221A604F
:1030A0007B6842F210729A607B68234A1A617B68DF
:1030B000224A5A617B6840F2DC52DA607B6803F195
:1030C000A40407F11C050FCD0FC40FCD0FC40FCD05
:1030D0000FC495E8070084E807007B680022C3F866
:1030E000F0207B68002283F80A217B68144AC3F829
:1030F000EC207B68124AC3F8E4207B6801225A71F5
:103100007B68002283F8F5207B68743342F21071EB
:103110001846FFF75FFF7B6808330A49184602F03C
:1031200087FE7B6801221A7100BF0837BD46BDE8E3
:10313000B04004B0704700BF3333733FCDCC4C3D3B
:103140000000C8426400002080B584B000AF786001
:103150007B68D3ED2B6A7B6893ED2A7AC6EE877A7B
:10316000C7ED027A7B6803F5847107F10803012239
:1031700018460DF01DFFD7ED027AFDEEE77A17EE47
:10318000903A1AB27B68A3F8082101F043F903468C
:10319000FB73FB7B204AD25C7B6883F80A211F4BC0
:1031A00093F81031DBB2002B0AD17B6893F80A3117
:1031B000062201211846FFF721FD0346DBB209E094
:1031C0007B6893F80A31062201211846FFF72AFD91
:1031D0000346DBB27A6882F80A317B6874330021D7
:1031E0001846FFF71DFF7B6874330D491846FFF73B
:1031F00023FF0A4B93F80A31084AB2F9082192B228
:103200001946084803F054F87B6802225A7100BF3F
:103210001037BD4680BD00BF5C00002000030020C9
:10322000093800080803002080B584B000AF78603A
:103230007B6893ED2A7AF0EE046AC6EE877AC7EDD2
:10324000037A7B6803F5847107F10C0301221846A9
:103250000DF0AEFE7B6803F174007B68D3F8983004
:1032600019467B681A687B6893F81031DBB2FFF768
:10327000BDFE7B6874331846FFF7C5FEF0EE407A5A
:103280007B68C3ED437A7B6803F108007B6893F8A1
:103290000A117B68B3F908319BB21A4603F008F8AB
:1032A00000BF1037BD4680BDB0B586B000AF7860B6
:1032B0007B6893F8F530022B6AD0022B00F3238150
:1032C000002B02D0012B0CD01DE17B68002283F87B
:1032D000F4207B68012283F8F5207B68002283F8C4
:1032E000FC207B6893F8F5207B6893F8F4309A42D1
:1032F00025D07B68D3ED2B6A7B6893ED2A7AC6EEE6
:10330000877AC7ED037A7B6803F5847107F10C03B4
:10331000012218460DF04CFE7B6893F8A6207B68CE
:1033200083F80A217B6803F1E0027B681B68194679
:103330001046FFF741FE7B68012283F8F4207B688A
:1033400003F1E0047B681D687B68B3F8A4301A467B
:103350004FF47A7302FB03F31846FDF7B7F84FF00A
:103360000002714BFDF746FA02460B46104619461D
:10337000FDF750FB03461A4629462046FFF707FE95
:103380000346002B00F0C1807B68022283F8F52001
:103390007B6893F8F5207B6893F8F4309A4215D057
:1033A0007B6803F1E0027B681B6819461046FFF753
:1033B00003FE7B6803F1E8027B681B681946104630
:1033C000FFF7FAFD7B68022283F8F4207B6803F1A3
:1033D000E8007B6819687B68D3F8F0301A46FFF77D
:1033E000D6FD0346FB75FB7D002B00F090807B68CB
:1033F000D3F818217B68C3F814217B68D3F81831FF
:103400001846FDF775F804460D467B6893F81C31A5
:103410001846FDF75BF802460B4620462946FDF7A5
:10342000BFF802460B46104619464FF000023F4BCC
:10343000FDF7B6F802460B4610461946FDF70AFBA3
:1034400003463B61D7ED047AB1EE087A67EE877ADE
:1034500017EE900AFDF74CF802460B462EA1D1E973
:103460000001FDF7C7F902460B4610461946FDF765
:10347000D1FA02467B68C3F8F0207B68D3F8F020CD
:1034800013465B0013445B001A4642F21073B3FB11
:10349000F2F31846FDF70AF821A3D3E90023FDF75C
:1034A0007FF802460B4610461946FDF7D3FA02464E
:1034B0007B68C3F80C217B6893F81031DBB2002BDA
:1034C0000AD17B6893F80A31062201211846FFF7DA
:1034D00095FB0346DBB209E07B6893F80A310622CC
:1034E00001211846FFF79EFB0346DBB27A6882F89B
:1034F0000A317B6803F1E8027B681B6819461046B5
:10350000FFF75AFD03E000BF02E000BF00E000BF8C
:1035100000BF1837BD46B0BD000000000088C340A2
:10352000182D4454FB2119400000594000004E4022
:1035300080B582B000AF78607868FFF705FE7B68E1
:1035400003F108007B6893F80A117B68B3F908312E
:103550009BB21A4602F0ACFE00BF0837BD4680BDE4
:103560002DE9B04F94B000AFF863FB6B1B7983F08B
:103570000103DBB2002B40F02C81FFF769FDF864FA
:10358000FB6B03F10802FB6B94331946104602F003
:103590006DFFFB6B5B79032B16D801A252F823F069
:1035A000C9350008B1350008B9350008C135000833
:1035B000F86BFFF7BDFF08E0F86BFFF735FE04E09E
:1035C000F86BFFF771FE00E000BF844B1B685A1CCC
:1035D000824B1A6007F147031946814800F087F9CA
:1035E000B864FB6B93F82430DBB2012B40F0E88029
:1035F000BB6C002B00F0E480FB6BD3F8943000220E
:103600003B637A63D7E90C234FF000004FF00001D1
:10361000590141EAD261500102460B46396B541AF6
:10362000796B63EB01054FF000024FF00003AB0034
:1036300043EA9473A20014461D46D7E90C120B46C8
:1036400014EB0308134645EB03094FF000024FF05B
:1036500000034FEA091343EA18734FEA0812B2EB6A
:103660000801396163EB09037B614FF000024FF001
:103670000003D7E9044529464B01214643EAD163BB
:1036800021464A014FF000004FF00001D00F40EA00
:103690004300D91703B2BA6C1380FB6BD3F8983090
:1036A00000223B627A62D7E9084522462B464FF05A
:1036B00000004FF00001590141EAD2615001024679
:1036C0000B462146B2EB010A294663EB010B4FF092
:1036D00000024FF000034FEA8B0343EA9A734FEA6C
:1036E0008A0292469B4623461AEB0303BB602B4695
:1036F0004BEB0303FB604FF000024FF00003D7E9F0
:10370000024529460B01214643EA117321460A016D
:103710002146511A3960294663EB01037B604FF063
:1037200000024FF00003D7E9004529464B0121462E
:1037300043EAD16321464A01104619464FF0000280
:103740004FF00003C20F42EA4102CB1712B2BB6C2A
:103750005A80FB6BD3F89C300022BB61FA614CF2BB
:103760005033D7E906452A4603FB02F200232146DF
:1037700001FB03F313444CF250322146A1FB021229
:10378000FA620A46BA62FA6A1344FB624FF0000218
:103790004FF00003D7E90A452146CA0F294642EAFD
:1037A00041022946CB1712B2BB6C9A80FB6BD3ED5A
:1037B000437AFDEEE77A17EE903A1AB2BB6C1A81A3
:1037C000074800F0B5F8F86CFFF74EFC03463B6481
:1037D00000E000BF5037BD46BDE8B08F00030020B9
:1037E0003C05002080B500AF0248FFF7B9FE00BFDE
:1037F00080BD00BF0003002080B400AF00BFBD4605
:103800005DF8047B7047000080B582B000AF00F027
:1038100001FE0346FB71FB79184AD25C184B83F812
:103820000A21174B93F81031DBB2002B0AD1144B4D
:1038300093F80A31062201211846FFF7DFF9034603
:10384000DBB209E00E4B93F80A310622012118463B
:10385000FFF7E8F90346DBB2094A82F80A31084B60
:1038600093F80A31064AB2F9082192B2194605487E
:1038700002F01EFD00BF0837BD4680BD5C00002081
:10388000000300200803002080B586B002AF7860F6
:103890007B6803F5F46079680823F422FFF7D6F912
:1038A0007B680022C3F8BC277B680022C3F8C027CE
:1038B0007B680022C3F8C4277B6803F5F4607B684B
:1038C00003F5F76207F10A0107F10803019307F115
:1038D0000C0300930B460121FFF77CFA7B68D3F8B9
:1038E000B83700221A6000BF1037BD4680BD80B4D3
:1038F00083B000AF786039607B68D3F8BC37172B92
:103900000FD83B6805221A707B68D3F8B8177B681C
:10391000D3F8BC2713469B0013445B000B440433CD
:1039200000E0002318460C37BD465DF8047B704765
:1039300080B586B002AF78607B68D3F8BC37172BB0
:1039400006D87B68D3F8BC375A1C7B68C3F8BC2701
:103950007B68D3F8C0375A1C7B68C3F8C0277B68E4
:10396000D3F8BC37172B2ED97B6803F5F4630121FC
:103970001846FFF7CAF97B6803F5F4607B6803F526
:10398000F76207F10A0107F10803019307F10C033D
:1039900000930B460121FFF71DFA0346002B0BD0C5
:1039A0007B68D3F8B8377A68D2F8C0271A607B688A
:1039B0000022C3F8BC2706E07B68D3F8C4375A1C42
:1039C0007B68C3F8C42700BF1037BD4680BD80B5F3
:1039D00086B002AF786039607B6803F5F46007F168
:1039E0000C0107F10A0207F1080300930B4639683E
:1039F000FFF759FA0346002B08D07B6803F5F46300
:103A000001211846FFF7B9F9012300E00023184609
:103A10001037BD4680BD80B500AF00F0FBF800BF99
:103A2000FDE780B400AF00BFBD465DF8047B704782
:103A300080B594B000AF7860084611461A46034638
:103A4000FB700B46BB7013467B70BB783B73FB78F7
:103A50007B73FB783F2B07D8FA7807F10C0302330E
:103A600079681846FDF78CFE0D4B18687B784FF48B
:103A70007A7202FB03F30B4AA2FB03239A0907F1B4
:103A80000C01002303F0ECFB074B18680023022213
:103A9000002104F0D1FC00BF5037BD4680BD00BFFF
:103AA00038050020D34D6210240500200FB480B5E6
:103AB00092B000AF07F154033B60381D3B683A6D8C
:103AC0004021FDF78FF978647B6C002B09DD7B6C5E
:103AD0003F2BA8BF3F23D9B2381D00230022FFF798
:103AE000A7FF00BF4837BD46BDE8804004B070471F
:103AF00080B582B000AF7860074B1B685A1C06493E
:103B00000A6019460548FFF7D1FF4FF47A7003F0B9
:103B1000DBFF00BFF0E700BF040D00200411010827
:103B200080B582B000AF78604FF47A7003F0CCFFBC
:103B3000FAE7000080B594B000AF7860304B1B68A6
:103B400007F108010022184603F08CFC0346012B04
:103B50000CBF01230023DBB2002B30D03B7A002BBB
:103B600002D0012B11D021E026487B7A1A4607F1BA
:103B70000803991C13460022FEF7A6F87B7A0F2251
:103B80000121214800F060F910E01E487B7A1A46B6
:103B900007F10803991C13460022FEF795F87B7A7B
:103BA0000E220121184800F04FF900BF7B7A07333D
:103BB000DBB21A461449154802F0CEFE1EE007F1AA
:103BC0004C0319461248FFF702FF0346002B11D0A1
:103BD0000C48FB6CF4221946FDF7D2FDF423C122F8
:103BE0000121094800F030F9FB220749074802F09B
:103BF000B3FE03E00121012004F0D6FB9EE700BFE5
:103C0000380500202504002020040020280500207D
:103C10003C050020B0B59CB00CAF03F07DF93248F4
:103C200000F098F93148FFF72FFE314B314A1A6006
:103C30002F4802F071FE012003F0FAFA03462E4AE3
:103C400013602D4B186800230022002103F008FBAD
:103C500000224221142003F077FA0346274A13601A
:103C6000274B01930223009300234FF40072254950
:103C7000254803F0E9FD002301930123009300236D
:103C80004FF480722149224803F0DEFD00230193A6
:103C90000123009300234FF480721E491E4803F055
:103CA000D3FD1E4B3C1D1D460FCD0FC40FCD0FC4C1
:103CB0000FCD0FC495E8070084E807006D4607F1B3
:103CC00010040FCC0FC50FCC0FC594E80F0085E88A
:103CD0000F003B1D0ECB1248FFF7D6F903F02AFF69
:103CE00000BF4037BD46B0BD340500203C05002074
:103CF00028050020D8EC0D00200500203805002004
:103D00002405002010110108353B00081C11010892
:103D1000F13A00082C110108213B00083C11010870
:103D20000003002080B5ADF5047D00AF07F50473F6
:103D3000A3F5037318600A4607F50473A3F20D2375
:103D40001A7007F50473A3F50273224A1846114648
:103D50004FF400731A46FDF713FD4FF6FF73A7F8F3
:103D60000E320023A7F80C3222E0B7F80E32DAB296
:103D7000B7F80C3207F50471A1F5037109680B441B
:103D80001B78534087F80B32B7F80E321B0A9AB2F1
:103D900097F80B1207F50473A3F5027333F811308B
:103DA0005340A7F80E32B7F80C320133A7F80C32A3
:103DB00007F50473A3F20D231B789BB2B7F80C220E
:103DC0009A42D2D3B7F80E32184607F50477BD46AB
:103DD00080BD00BF7811010880B485B000AF786065
:103DE0000B46FB70FB78002B03D17B6801221A7015
:103DF00025E00123FB730023BB7301237B7315E0D4
:103E0000FB7B7A6813441B78002B09D1BB7B7A6853
:103E100013447A7B1A70FB7BBB7301237B7302E034
:103E20007B7B01337B73FB7B0133FB73FA7BFB787A
:103E30009A42E5D3BB7B7A6813447A7B1A701437B5
:103E4000BD465DF8047B704780B584B000AF7860F4
:103E5000084611461A460346FB700B463B80134644
:103E6000BB700023FB73BB78F52B01D9002353E013
:103E7000FB783F2B03D83B88B3F5806F01D3002339
:103E80004AE07B6800221A707B680133BA781A70A6
:103E900097F903309B005AB23B881B0A9BB25BB276
:103EA00013435AB27B680333D2B21A707B6804336F
:103EB0003A88D2B21A703B88C02B01D80123FB7319
:103EC000FB7B002B0BD07B68DA1CBB780233DBB2A8
:103ED00019461046FFF726FF0346BB8102E04FF666
:103EE000FF73BB81BB891B0A99B2BB7805337A6823
:103EF0001344CAB21A70BB7806337A681344BA897D
:103F0000D2B21A707B689A1CBB780533DBB21946B3
:103F10001046FFF761FF002318461037BD4680BDED
:103F200080B400AF094BDB68084A43F08073D3606C
:103F3000074B00225A60064B1B68054A43F00103F9
:103F4000136000BFBD465DF8047B7047F0ED00E0F4
:103F5000001000E080B582B000AF7860FFF7E0FFAE
:103F600000BF0837BD4680BD80B483B000AF0346B4
:103F7000FB7197F90730002B0BDBFB7903F01F0275
:103F8000074997F907305B09012000FA02F241F86E
:103F9000232000BF0C37BD465DF8047B704700BF8F
:103FA00000E100E080B483B000AF03463960FB71EC
:103FB00097F90730002B0ADB3B68DAB20C4997F916
:103FC00007301201D2B20B4483F800230AE03B68A9
:103FD000DAB20849FB7903F00F03043B1201D2B2B5
:103FE0000B441A7600BF0C37BD465DF8047B704762
:103FF00000E100E000ED00E080B483B000AF786045
:104000007B681B6843F001027B681A6000BF0C37B5
:10401000BD465DF8047B704780B483B000AF786024
:104020007B685B6B18460C37BD465DF8047B7047B8
:1040300080B483B000AF78607B686FF002021A61D1
:1040400000BF0C37BD465DF8047B704780B483B079
:1040500000AF78607B681B6903F00203022B01D17B
:10406000012300E0002318460C37BD465DF8047BB1
:10407000704780B483B000AF78607B686FF0040253
:104080001A6100BF0C37BD465DF8047B704780B4F1
:1040900083B000AF78607B681B6903F00403042BD6
:1040A00001D1012300E0002318460C37BD465DF81E
:1040B000047B704780B483B000AF78607B68DB68B6
:1040C00043F002027B68DA6000BF0C37BD465DF842
:1040D000047B704780B483B000AF78607B68DB6896
:1040E00003F00203022B01D1012300E00023184654
:1040F0000C37BD465DF8047B704780B483B000AFD9
:1041000078607B68DB6843F004027B68DA6000BF9C
:104110000C37BD465DF8047B704780B483B000AFB8
:1041200078607B68DB6803F00403042B01D1012372
:1041300000E0002318460C37BD465DF8047B70474D
:1041400080B485B000AF7860084B1A6C07497B6873
:1041500013430B64054B1A6C7B681340FB60FB68D0
:1041600000BF1437BD465DF8047B7047003802403D
:1041700080B483B000AF786039607B681A693B68AF
:1041800013403A689A420CBF01230023DBB2184661
:104190000C37BD465DF8047B7047000080B582B0E7
:1041A00000AF0023FB714FF400411348FFF7E0FF1D
:1041B0000346002B03D0FB7943F00403FB71082175
:1041C0000E48FFF7D5FF0346002B03D0FB7943F0E1
:1041D0000203FB714FF480610848FFF7C9FF0346F3
:1041E000002B03D0FB7943F00103FB71FB791846E8
:1041F0000837BD4680BD00BF0000024000040240F9
:1042000080B59CB000AF0120FFF79AFF07F15C0377
:1042100000221A605A609A60DA601A6106F0FCF8AF
:1042200003465B00514A93420ED906F0F5F8034667
:1042300003F5743390335B004D4AA2FB03239B0CC0
:104240009BB2013B9BB200E00023A7F85C30002347
:104250003B664FF6FF737B660023BB660023FB665D
:1042600007F15C0319464FF0804007F00FFA07F1A1
:104270004C0300221A605A609A60DA600A23FB64D9
:1042800000233B6507237B650023BB6507F14C03D7
:1042900019464FF0804007F007FB4FF08040FFF7D2
:1042A000ABFE4FF08040FFF705FF4FF08040FFF777
:1042B00024FF02211C20FFF775FE1C20FFF754FE8F
:1042C00007F1340300221A605A609A60DA601A61BA
:1042D0005A614FF400437B630223BB630123FB63FA
:1042E00000233B640123BB6407F1340319462148D2
:1042F00007F018F807F11C0300221A605A609A6050
:10430000DA601A615A610823FB6102233B620123D0
:104310007B620023BB6201233B6307F11C03194648
:10432000154806F0FFFF3B1D00221A605A609A6094
:10433000DA601A615A614FF480637B600223BB60CC
:104340000123FB6000233B610123BB613B1D194638
:10435000094806F0E7FFFFF721FF03461A46074B1F
:104360001A7000BF7037BD4680BD00BF3F420F00CE
:1043700083DE1B4300000240000402400C0D0020BD
:1043800080B485B000AF78604FF080435B6AFB601B
:10439000064B1B68FA68D31ABB60044AFB681360BB
:1043A00000BF1437BD465DF8047B7047140D002034
:1043B00080B483B000AF7860044A7B68136000BFAC
:1043C0000C37BD465DF8047B704700BF080D002028
:1043D00080B500AF0E4B1B681846FCF767F8024625
:1043E0000B4609A1D1E90001FCF704FA02460B468D
:1043F00010461946FCF72EFB034607EE903AB0EE46
:10440000670A80BDAFF30080C170361A3BF51F41CB
:10441000100D002080B400AF034B1B78DBB21846B0
:10442000BD465DF8047B70470C0D00202DE9B04FB0
:1044300084B000AF4FF08040FFF708FE0346002B2A
:104440005BD04FF08040FFF745FE0346002B54D071
:104450004FF08040FFF7ECFD4FF08040FFF7DCFDB0
:10446000034600229A46934652465B464FF00000B0
:104470004FF00001590141EAD261500102460B465A
:10448000B2EB0A0463EB0B054FF000024FF00003A0
:104490006B0243EAD453620214461D4614EB0A0829
:1044A00045EB0B094FF000024FF000034FEA891370
:1044B00043EA98634FEA8812B2EB0801396063EB74
:1044C00009037B60D7E900120B4613EB0A03BB60BC
:1044D000134643EB0B03FB60174A4FF00003D7E989
:1044E0000201FCF707FB02460B46144B1A60FFF76C
:1044F00055FE03461A46124B1A704FF08040FFF7E4
:10450000C6FD0346002B11D04FF08040FFF705FE9B
:104510000346002B0AD04FF08040FFF7AAFD094B5D
:104520001B68002B02D0074B1B68984700BF103751
:10453000BD46BDE8B08F00BF40420F00100D002007
:104540000C0D0020080D002080B483B000AF03469E
:10455000FB7197F90730002B0BDBFB7903F01F028F
:10456000074997F907305B09012000FA02F241F888
:10457000232000BF0C37BD465DF8047B704700BFA9
:1045800000E100E080B483B000AF03463960FB7106
:1045900097F90730002B0ADB3B68DAB20C4997F930
:1045A00007301201D2B20B4483F800230AE03B68C3
:1045B000DAB20849FB7903F00F03043B1201D2B2CF
:1045C0000B441A7600BF0C37BD465DF8047B70477C
:1045D00000E100E000ED00E080B483B000AF78605F
:1045E00039607B68DB6A23F470023B681A437B689E
:1045F000DA6200BF0C37BD465DF8047B704780B4BB
:1046000089B000AFF860B9607A60FB682C33194656
:10461000BB6803F440734FF440727A617A6992FA8E
:10462000A2F23A613A69BA61BA69002A01D120223C
:1046300003E0BA69B2FA82F2D2B2D3409B000B44D3
:10464000FB61FB691A68BB6803F01F031F2101FAB5
:1046500003F3DB431A407B6803F01F01BB6803F0E0
:104660001F0301FA03F31A43FB691A6000BF2437E2
:10467000BD465DF8047B704780B483B000AF7860BE
:1046800039607B689B6B23F440123B681A437B685C
:104690009A6300BF0C37BD465DF8047B704780B459
:1046A00087B000AFF860B9607A60FB689B6B1B0D48
:1046B00003F0030301337B61FB689A6BBB68D9B2DB
:1046C0007B69DBB2CB1ADBB20333DBB219460B4694
:1046D0009B000B441F2101FA03F3DB431A407B6864
:1046E00003F01F01BB68D8B27B69DBB2C31ADBB22F
:1046F0000333DBB2184603469B00034401FA03F37D
:104700001A43FB689A6300BF1C37BD465DF8047B03
:10471000704780B48FB000AFF860B9607A60FB6812
:104720000C331946BB6803F000734FF000727A61D6
:104730007A6992FAA2F23A613A69BA61BA69002AD0
:1047400001D1202203E0BA69B2FA82F2D2B2D34098
:104750009B000B447B637B6B1A68BB6803F0F873A8
:104760004FF0F8713962396A91FAA1F1F961F9698A
:104770007962796A002901D1202103E0796AB1FACE
:1047800081F1C9B2CB40072101FA03F3DB431A40A0
:10479000BB6803F0F8734FF0F871F962F96A91FAA7
:1047A000A1F1B962B96A3963396B002901D12021BD
:1047B00003E0396BB1FA81F1C9B2CB40796801FAF3
:1047C00003F31A437B6B1A6000BF3C37BD465DF8AC
:1047D000047B704780B483B000AF78607B689B68CF
:1047E00043F001027B689A6000BF0C37BD465DF85C
:1047F000047B704780B483B000AF78607B689B68AF
:1048000003F00103012B0CBF01230023DBB2184688
:104810000C37BD465DF8047B704780B483B000AFB1
:1048200078607B689B6843F080427B689A6000BF39
:104830000C37BD465DF8047B704780B483B000AF91
:1048400078607B68DB6C9BB218460C37BD465DF820
:10485000047B704780B483B000AF786039607B68B8
:104860009A683B681A437B689A6000BF0C37BD4664
:104870005DF8047B704780B487B000AF7860396022
:104880007B683C3319463B6803F440734FF4407235
:10489000FA60FA6892FAA2F2BA60BA683A613A69C2
:1048A000002A01D1202203E03A69B2FA82F2D2B2A0
:1048B000D3409B000B447B617B691B689BB218460D
:1048C0001C37BD465DF8047B704780B483B000AFF1
:1048D00078607B681B6803F00203022B0CBF012386
:1048E0000023DBB218460C37BD465DF8047B7047E9
:1048F00080B483B000AF78607B685B6843F080026F
:104900007B685A6000BF0C37BD465DF8047B70477A
:1049100080B483B000AF78607B681B6843F001020D
:104920007B681A6000BF0C37BD465DF8047B70479A
:1049300080B483B000AF786039607B681B6823F077
:1049400004023B681A437B681A6000BF0C37BD46FF
:104950005DF8047B704780B483B000AF78607B68FB
:104960001B6843F080027B681A6000BF0C37BD46AD
:104970005DF8047B704780B483B000AF78607B68DB
:104980001B6803F4407318460C37BD465DF8047B82
:10499000704780B483B000AF78607B68DB6A1846EC
:1049A0000C37BD465DF8047B704780B483B000AF20
:1049B00078607B685B6843F001027B685A6000BFE7
:1049C0000C37BD465DF8047B7047000080B485B0AD
:1049D00000AF786039603B68012B1CD03B68042B2A
:1049E00017D03B68102B12D03B68402B0DD03B6892
:1049F000B3F5807F07D03B68B3F5806F01D1052305
:104A00000AE0062308E0042306E0032304E002236F
:104A100002E0012300E00023FB737B681833194692
:104A2000FB7B0A4AD35C0B44BB60BB681A68FB7B08
:104A30000749CB5C194608238B401A43BB681A60B0
:104A400000BF1437BD465DF8047B7047C8160108E7
:104A5000D016010880B483B000AF786039607B68FD
:104A60005B6823F070023B681A437B685A6000BFA2
:104A70000C37BD465DF8047B704780B483B000AF4F
:104A800078607B685B6C43F400427B685A6400BFCB
:104A90000C37BD465DF8047B7047000080B485B0DC
:104AA00000AF7860084B5A6C07497B6813434B642E
:104AB000054B5A6C7B681340FB60FB6800BF1437E2
:104AC000BD465DF8047B70470038024080B483B077
:104AD00000AF786039600C4A3B6813441B781A4673
:104AE0007B6813441B6808493A680A4412781146E7
:104AF0007A680A4443F00103136000BF0C37BD46D7
:104B00005DF8047B704700BFD816010880B485B0FB
:104B100000AFF860B9607A600D4ABB6813441B7837
:104B20001A46FB6813441B6823F0C0020849BB689F
:104B30000B441B781946FB680B4419467B681343EA
:104B40000B6000BF1437BD465DF8047B704700BFA3
:104B5000D816010880B485B000AFF860B9607A60FB
:104B60000D4ABB6813441B781A46FB6813441B6844
:104B700023F490720849BB680B441B781946FB6804
:104B80000B4419467B6813430B6000BF1437BD46C6
:104B90005DF8047B704700BFD816010880B485B06B
:104BA00000AFF860B9607A600D4ABB6813441B78A7
:104BB0001A46FB6813441B6823F400720849BB685B
:104BC0000B441B781946FB680B4419467B6813435A
:104BD0000B6000BF1437BD465DF8047B704700BF13
:104BE000D816010880B485B000AFF860B9607A606B
:104BF0000D4ABB6813441B781A46FB6813441B68B4
:104C000023F480620849BB680B441B781946FB6893
:104C10000B4419467B6813430B6000BF1437BD4635
:104C20005DF8047B704700BFD816010880B485B0DA
:104C300000AFF860B9607A600D4ABB6813441B7816
:104C40001A46FB6813441B6823F4C0520849BB682A
:104C50000B441B781946FB680B4419467B681343C9
:104C60000B6000BF1437BD465DF8047B704700BF82
:104C7000D816010880B485B000AFF860B9607A60DA
:104C80000D4ABB6813441B781A46FB6813441B6823
:104C900023F4C0420849BB680B441B781946FB68E3
:104CA0000B4419467B6813430B6000BF1437BD46A5
:104CB0005DF8047B704700BFD816010880B485B04A
:104CC00000AFF860B9607A600D4ABB6813441B7886
:104CD0001A46FB6813441B6823F440320849BB683A
:104CE0000B441B781946FB680B4419467B68134339
:104CF0000B6000BF1437BD465DF8047B704700BFF2
:104D0000D816010880B485B000AFF860B9607A6049
:104D10000D4ABB6813441B781A46FB6813445B6852
:104D20001B0C1B040849BA680A4412781146FA6839
:104D30000A4411467A6813434B6000BF1437BD46DE
:104D40005DF8047B704700BFD816010880B485B0B9
:104D500000AFF860B9607A600D4ABB6813441B78F5
:104D60001A46FB6813441B6823F060620849BB685D
:104D70000B441B781946FB680B4419467B681343A8
:104D80000B6000BF1437BD465DF8047B704700BF61
:104D9000D816010880B483B000AF786039600C4A3F
:104DA0003B6813441B781A467B6813445B690849C7
:104DB0003A680A44127811467A680A4423F00403D8
:104DC000536100BF0C37BD465DF8047B704700BFE0
:104DD000D816010880B485B000AFF860B9607A6079
:104DE000074ABB6813441B781A46FB6813441A46EB
:104DF0007B68D36000BF1437BD465DF8047B704705
:104E0000D816010880B485B000AFF860B9607A6048
:104E1000074ABB6813441B781A46FB6813441A46BA
:104E20007B68936000BF1437BD465DF8047B704714
:104E3000D816010880B483B000AF78607B681B6827
:104E400003F01003102B0CBF01230023DBB2184624
:104E50000C37BD465DF8047B704780B483B000AF6B
:104E600078607B681B6803F02003202B0CBF0123B4
:104E70000023DBB218460C37BD465DF8047B704753
:104E800080B483B000AF78607B6810229A6000BF66
:104E90000C37BD465DF8047B704780B483B000AF2B
:104EA00078607B6820229A6000BF0C37BD465DF8B1
:104EB000047B704780B483B000AF786039600C4ADF
:104EC0003B6813441B781A467B6813441B680849E7
:104ED0003A680A44127811467A680A4443F0080393
:104EE000136000BF0C37BD465DF8047B704700BF00
:104EF000D816010880B483B000AF786039600C4ADE
:104F00003B6813441B781A467B6813441B680849A6
:104F10003A680A44127811467A680A4443F010034A
:104F2000136000BF0C37BD465DF8047B704700BFBF
:104F3000D816010880B586B000AF7860174BDB6AE1
:104F40007B61164B1B6B3B61144B5B6BFB60002161
:104F50001248FFF741FB7A684FF400710F48FFF7E2
:104F60004EFB0E48FFF759FC00BF0C48FFF7ADFCA5
:104F70000346002BF9D00948FFF75FFC03467B810D
:104F8000064A7B69D362054A3B691363034AFB689F
:104F900053637B8918461837BD4680BD0020014009
:104FA00080B588B000AF7860354B5B68344A43F415
:104FB0000003536042F21073FB6002E0FB68013BA8
:104FC000FB60FB68002BF9D107222E492E48FFF722
:104FD000A0FB0023FB611E23FB752A48FFF7AAFFF5
:104FE0000023BB610AE02748FFF7A4FF03461A46E7
:104FF000FB691344FB61BB690133BB61FB7DBA698B
:105000009A42F0DBFB7DFA69B2FBF3F33B611F4B85
:105010001B8807EE903AB8EEE77ADFED1D6AC7EE1F
:10502000267A9FED1C7A67EE877A7B68C3ED067A55
:105030007B68D3ED067A9FED167A67EE876A3B6947
:1050400007EE903AB8EE677AC6EE877A7B68C3EDD2
:10505000057A7B68D3ED057A9FED0F7A27EE877A84
:10506000DFED0B6AC7EE267AFDEEE77A17EE903A8F
:105070001AB27B681A8200BF2037BD4680BD00BFD0
:105080000023014011005081002001402A7AFF1FB7
:1050900000F07F453333534000247449B0B598B0D5
:1050A00000AF78600023BB60544B5B6C534A43F401
:1050B00080735364514B5B6C03F48073BB60BB68BB
:1050C0000023FB6500233B6500237B654FF4807361
:1050D000BB6507F15C031946494807F0B9F907F1C8
:1050E00050031946474807F0F5F94648FFF782FB99
:1050F0000346002B02D14348FFF76CFB7868FFF7AB
:105100004FFF414B07F13C041D460FCD0FC42B68E8
:10511000236007F13C0319463A4807F049FA032295
:105120003A493848FFF7F5FA032238493548FFF77E
:10513000F0FA032235493348FFF7EBFA344B07F115
:105140002C040FCB84E80F0002224FF000712D4891
:10515000FFF7DFFA02222F492A48FFF7DAFA022284
:105160002D492848FFF7D5FA02222C492548FFF798
:10517000D0FA01222A492348FFF7CBFA0122294914
:105180002048FFF7C6FA012227491E48FFF7C1FA57
:1051900007F12C0319461B4807F06AFB4FF48011F6
:1051A0001848FFF757FB07F10C032022002118468F
:1051B000FCF7B6F86023FB6001233B611B48FFF757
:1051C000E8FB034601335B08BB614FF4805117488D
:1051D000FFF7FCFB07F10C031A464FF4805113480C
:1051E00006F020FB70211148FFF734FC0548FFF75B
:1051F0007FFB00BF6037BD46B0BD00BF0038024036
:1052000000230140002001407813010812008001B2
:105210008C130108010030020200600203009002BA
:105220000400C0020500F002060020030000014057
:1052300080B5BCB000AF07F1D80300221A605A60F5
:105240009A60DA601A615A614FF48073C7F8D830F7
:105250000223C7F8DC300223C7F8E0300023C7F888
:10526000E4300223C7F8E8300123C7F8EC3007F137
:10527000D8031946794806F055F807F1C003002213
:105280001A605A609A60DA601A615A614FF40073CA
:10529000C7F8C0300223C7F8C4300223C7F8C830AB
:1052A0000023C7F8CC300223C7F8D0300123C7F859
:1052B000D43007F1C0031946684806F033F807F107
:1052C000A80300221A605A609A60DA601A615A6173
:1052D0004FF48063C7F8A8300223C7F8AC3002232C
:1052E000C7F8B0300023C7F8B4300223C7F8B8308D
:1052F0000123C7F8BC3007F1A8031946574806F048
:1053000011F807F1900300221A605A609A60DA607F
:105310001A615A614FF40053C7F890300223C7F85E
:1053200094300223C7F898300023C7F89C3001233B
:10533000C7F8A0300123C7F8A43007F1900319463D
:10534000474805F0EFFF07F1780300221A605A6022
:105350009A60DA601A615A614FF48043BB67022396
:10536000FB670223C7F880300023C7F8843001238D
:10537000C7F888300123C7F88C3007F17803194645
:10538000374805F0CFFF07F1600300221A605A602A
:105390009A60DA601A615A614FF400433B66022357
:1053A0007B660223BB660023FB6601233B67012368
:1053B0007B6707F160031946294805F0B3FF07F141
:1053C000480300221A605A609A60DA601A615A61D2
:1053D0000123BB640323FB6407F1480319461F48FC
:1053E00005F0A0FF07F1300300221A605A609A60AE
:1053F000DA601A615A6102233B6303237B6307F17E
:1054000030031946154805F08DFF07F118030022F7
:105410001A605A609A60DA601A615A610423BB61AB
:105420000323FB6107F1180319460C4805F07AFFC6
:105430003B4600221A605A609A60DA601A615A612B
:1054400008233B6003237B603B461946034805F075
:1054500069FF00BFF037BD4680BD00BF00000240BD
:105460000004024080B582B000AF00237B602E4B69
:105470001B6B2D4A43F4800313632B4B1B6B03F40C
:1054800080037B607B68002200212848FFF75EFCD8
:10549000002200212548FFF739FB4FF4803200211C
:1054A0002248FFF70BFC4FF4807200211F48FFF7E2
:1054B00051FB002200211D48FFF770FB4FF4806272
:1054C00000211A48FFF78EFB4FF4006200211748B5
:1054D000FFF7ACFB4FF4005200211448FFF7CAFB62
:1054E00000211248FFF756FC114A00210F48FFF730
:1054F00089FC104B1A4600210C48FFF76BFC002278
:1055000000210A48FFF7FEFB00210848FFF7F2FCE4
:1055100000210648FFF7CEFC00210448FFF7D6FA29
:1055200000BF0837BD4680BD00380240006402401D
:105530004C200140180D002080B500AF0521382017
:10554000FFF720F83820FEF7FFFF00211220FFF7B9
:1055500019F81220FEF7F8FF0248FFF7C9F900BF5B
:1055600080BD00BF002001402DE9B04FD8B000AF92
:10557000C7F80C010120FFF791FA0023A7F84C317E
:105580004023C7F8503104F05BFF03465A08D7F8B0
:105590000C311B689A420AD304F052FF0246D7F836
:1055A0000C311B685B00B2FBF3F3013B00E000230E
:1055B000C7F854310023C7F858310023C7F85C31CD
:1055C000CF48FFF7C8F90021CD48FFF7B1F907F53B
:1055D000A6731946CA4806F059F84FF40063C7F895
:1055E00034310023C7F838310023C7F83C31D7F8ED
:1055F0000C315A684FF47A7302FB03F30022C7F8A8
:105600000031C7F80421BE48FFF7B5F90346002B67
:105610001BD104F015FF03460022C7F8E830C7F895
:10562000EC20D7E93A23B4A1D1E90001FBF762FAF3
:1056300002460B46104619464FF000024FF0000399
:10564000CB0143EA5063C2013FE0AD48FFF793F955
:105650000346B3F5807F1CD104F0F2FE03465B08DD
:105660000022C7F8E030C7F8E420D7E93823A2A128
:10567000D1E90001FBF73EFA02460B4610461946F7
:105680004FF000024FF00003CB0143EA5063C20128
:105690001BE004F0D5FE03469B080022C7F8D83073
:1056A000C7F8DC20D7E9362393A1D1E90001FBF745
:1056B00021FA02460B46104619464FF000024FF001
:1056C0000003CB0143EA5063C201D7F800119142B5
:1056D000D7F8041199415AD2D7F80C315B684FF4CE
:1056E0007A7202FB03F30022C7F8D030C7F8D42047
:1056F0008348FFF740F90346002B11D104F0A0FEC8
:1057000003460022C7F8C830C7F8CC20D7E93223B7
:1057100079A1D1E90001FBF7EDF902460B462BE038
:105720007748FFF728F90346B3F5807F12D104F0DC
:1057300087FE03465B080022C7F8C030C7F8C420C4
:10574000D7E930236CA1D1E90001FBF7D3F9024678
:105750000B4611E004F074FE03469B080022C7F8D4
:10576000B830C7F8BC20D7E92E2363A1D1E90001E6
:10577000FBF7C0F902460B46D7E93401FBF7BAF94B
:1057800002460B46D3B203F07F03DBB2F1E2D7F857
:105790000C315A684FF47A7302FB03F30022C7F806
:1057A000F830C7F8FC205648FFF7E5F80346002B11
:1057B0001BD104F045FE03460022C7F8B030C7F8FD
:1057C000B420D7E92C234CA1D1E90001FBF792F9D1
:1057D00002460B46104619464FF000024FF00003F8
:1057E0000B0243EA106302023FE04548FFF7C3F8AB
:1057F0000346B3F5807F1CD104F022FE03465B080C
:105800000022C7F8A830C7F8AC20D7E92A233AA16C
:10581000D1E90001FBF76EF902460B461046194626
:105820004FF000024FF000030B0243EA1063020244
:105830001BE004F005FE03469B080022C7F8A030D9
:10584000C7F8A420D7E928232BA1D1E90001FBF751
:1058500051F902460B46104619464FF000024FF030
:1058600000030B0243EA10630202D7F8F8109142DA
:10587000D7F8FC10994173D2D7F80C315B684FF41C
:105880007A7202FB03F30022C7F89830C7F89C2015
:105890001B48FFF770F80346002B11D104F0D0FD30
:1058A00003460022C7F89030C7F89420D7E9242394
:1058B00011A1D1E90001FBF71DF902460B4633E0C7
:1058C0000F48FFF758F80346B3F5807F1AD104F06C
:1058D000B7FD03465B080022C7F88830C7F88C2064
:1058E000D7E9222304A1D1E90001FBF703F902461D
:1058F0000B4619E0AFF300800010A5D4E8000000CB
:105900000000014004F09CFD03469B080022C7F8FC
:105910008030C7F88420D7E92023B7A1D1E900015E
:10592000FBF7E8F802460B46D7E92601FBF7E2F859
:1059300002460B46104619464FF000024FF0000396
:10594000420842EAC1724B08D3B2403BDBB25BB2C1
:1059500003F03F035BB263F07F035BB2DBB208E2AC
:10596000D7F80C315A684FF47A7302FB03F3002224
:10597000C7F8F030C7F8F420A148FEF7FCFF034653
:10598000002B19D104F05CFD03460022BB67FA67C7
:10599000D7E91E2398A1D1E90001FBF7ABF8024635
:1059A0000B46104619464FF000024FF000034B0221
:1059B00043EAD05342023BE09148FEF7DCFF034646
:1059C000B3F5807F1AD104F03BFD03465B0800224B
:1059D0003B677A67D7E91C2387A1D1E90001FBF770
:1059E00089F802460B46104619464FF000024FF068
:1059F00000034B0243EAD053420219E004F020FDB9
:105A000003469B080022BB66FA66D7E91A237AA1EF
:105A1000D1E90001FBF76EF802460B461046194625
:105A20004FF000024FF000034B0243EAD053420212
:105A3000D7F8F0109142D7F8F410994180F08F8098
:105A4000D7F80C315B6800229A46934652465B4673
:105A50004FF000004FF00001590141EAD2615001BE
:105A600002460B46B2EB0A0463EB0B054FF0000253
:105A70004FF00003AB0043EA9473A20014461D46A6
:105A800014EB0A03BB6045EB0B03FB604FF0000215
:105A90004FF00003D7E902452946CB00214643EAEF
:105AA00051732146CA0014461D465548FEF763FF50
:105AB0000346002B0FD104F0C3FC034600223B66D3
:105AC0007A66D7E918234CA1D1E90001FBF712F857
:105AD00002460B4627E04A48FEF74DFF0346B3F562
